S0120000647269766572732056312E737265636C
S11300000C942A000C948A030C94B3030C94DC0320
S11300100C9447000C9447000C9447000C94820401
S11300200C94AB040C94D4040C9434040C94050484
S11300300C9447000C9477050C94CA050C94A10504
S11300400C94F0010C9447000C9447000C94470066
S11300500C94470011241FBECFE5D8E0DEBFCDBF0E
S113006010E0A0E6B0E0E0E4FCE002C005900D92F0
S1130070AA3BB107D9F720E0AAEBB0E001C01D927A
S1130080AE3DB207E1F70E9448010C941E060C94A1
S11300900000CF93C82F40E063E085E00E94040392
S11300A040E063E086E00E940403C4FB442740F977
S11300B061E080E00E940403C5FB442740F961E04D
S11300C081E00E940403C6FB442740F961E082E01A
S11300D00E9404034C2F441F4427441F61E083E023
S11300E00E94040341E063E087E00E9404038FE977
S11300F09FE00197F1F700C0000040E063E087E073
S11301000E9404038FE99FE00197F1F700C000000B
S11301108091BA00882389F14C2F417061E080E01E
S11301200E940403C1FB442740F961E081E00E947E
S11301300403C2FB442740F961E082E00E94040307
S1130140C3FB442740F961E083E00E94040341E0DB
S113015063E087E00E9404038FE99FE00197F1F7D1
S113016000C0000040E063E087E00E9404038FE9E0
S11301709FE00197F1F700C00000CF91089541E09E
S113018063E085E00E942B0241E063E086E00E9488
S11301902B0241E063E087E00E942B0241E061E032
S11301A080E00E942B0241E061E081E00E942B028A
S11301B041E061E082E00E942B0241E061E083E0E3
S11301C00E942B022FEF89EF90E021508040904055
S11301D0E1F700C0000080E30E9449008FE99FE03E
S11301E00197F1F700C0000080E30E9449008FE905
S11301F09FE00197F1F700C0000080E30E944900EE
S11302008FE99FE00197F1F700C0000080E20E94AF
S113021049008FE99FE00197F1F700C0000081E0F9
S11302208093BA008CE00E94490086E00E94490055
S113023081E00E94490080E80E944900089541E05D
S1130240FC01618180810E942B02089541E0FC0140
S1130250618180810E940403089540E0FC01618172
S113026080810E94040308950F931F93CF93DF931B
S1130270EC018B01CA010E942D01C8010E942D01CD
S1130280CE010E942D01DF91CF911F910F9108950E
S1130290CF93DF93CDB7DEB760970FB6F894DEBF88
S11302A00FBECDBF19821A8281E08B831C8282E04B
S11302B08D831E82CE0101960E941F01CE010396FA
S11302C00E941F01CE0105960E941F010F2EF0E629
S11302D0EF2EF9E0FF2EF02D01E020E043E060E096
S11302E083E00E9408050E94BF0010E00E945C05A4
S11302F0883011F411500AC08D3041F0E7E0F0E08D
S1130300EC0FFD1FE10FF11D80831F5F8D3071F72E
S11303108F81882359F3AE014B5F5F4FBE016D5F40
S11303207F4FCE0101960E94340160E670E0CE0159
S113033007960E941506892B49F4CE0105960E9462
S1130340260186E690E00E9464052EC06DE770E009
S1130350CE0107960E941506892B49F4CE01019619
S11303600E94260182E890E00E9464051DC067E9AE
S113037070E0CE0107960E941506892B49F4CE0140
S113038003960E9426018CE990E00E9464050CC04B
S113039064EB70E0CE0107960E941506892B21F4C8
S11303A087EB90E00E946405FE0137968AE0DF0146
S11303B01D928A95E9F710E099CFCF93C82F40E0BA
S11303C060E00E942B0287B1807E87B987B18C2BB5
S11303D087B986B1806486B9C093BB00CF91089574
S11303E01F920F920FB60F9211242F933F934F93A6
S11303F05F936F937F938F939F93AF93BF93EF9389
S1130400FF93E091BD00F091BE00309771F084B18C
S113041095B1099586B1806186B98091BC0081301F
S113042021F48091BB000E94DD01FF91EF91BF9107
S1130430AF919F918F917F916F915F914F913F9178
S11304402F910F900FBE0F901F90189560E072E1EE
S11304508AE790E008956130E1F138F0623009F400
S11304606CC0633009F49DC00895413069F44AB307
S113047021E030E0B90102C0660F771F8A95E2F7E8
S1130480CB01842B8ABB089541110EC04AB321E0ED
S113049030E0B90102C0660F771F8A95E2F7CB01FD
S11304A0809584238ABB0895423009F0ACC04BB3D5
S11304B021E030E0B90102C0660F771F8A95E2F7A8
S11304C0CB01942F982B9BBB9AB3809589238ABB2D
S11304D00895413069F447B321E030E0B90102C026
S11304E0660F771F8A95E2F7CB01842B87BB0895AB
S11304F041110EC047B321E030E0B90102C0660FDC
S1130500771F8A95E2F7CB018095842387BB0895F2
S1130510423009F078C048B321E030E0B90102C0AC
S1130520660F771F8A95E2F7CB01942F982B98BB1F
S113053097B38095892387BB0895413069F444B308
S113054021E030E0B90102C0660F771F8A95E2F717
S1130550CB01842B84BB089541110EC044B321E028
S113056030E0B90102C0660F771F8A95E2F7CB012C
S11305708095842384BB0895423009F044C045B378
S113058021E030E0B90102C0660F771F8A95E2F7D7
S1130590CB01942F982B95BB94B38095892384BB6E
S11305A00895413069F441B321E030E0B90102C05B
S11305B0660F771F8A95E2F7CB01842B81BB0895E0
S11305C041110EC041B321E030E0B90102C0660F11
S11305D0771F8A95E2F7CB018095842381BB089528
S11305E0423089F442B321E030E0B90102C0660F21
S11305F0771F8A95E2F7CB01942F982B92BB91B386
S11306008095892381BB0895613039F138F06230D7
S113061009F442C0633009F45EC00895413069F4BE
S11306204BB321E030E0B90102C0660F771F8A9511
S1130630E2F7CB01842B8BBB089541116AC04BB305
S113064021E030E0B90102C0660F771F8A95E2F716
S1130650CB01809584238BBB0895413069F448B362
S113066021E030E0B90102C0660F771F8A95E2F7F6
S1130670CB01842B88BB089541114BC048B321E0C2
S113068030E0B90102C0660F771F8A95E2F7CB010B
S11306908095842388BB0895413069F445B321E0F3
S11306A030E0B90102C0660F771F8A95E2F7CB01EB
S11306B0842B85BB089541112CC045B321E030E063
S11306C0B90102C0660F771F8A95E2F7CB018095C6
S11306D0842385BB0895413069F442B321E030E0BE
S11306E0B90102C0660F771F8A95E2F7CB01842B0C
S11306F082BB089541110DC042B321E030E0B9013D
S113070002C0660F771F8A95E2F7CB018095842398
S113071082BB08951F920F920FB60F9211242F934C
S11307203F934F935F936F937F938F939F93AF9375
S1130730BF93EF93FF93E091BF00F091C000309717
S113074009F00995FF91EF91BF91AF919F918F911E
S11307507F916F915F914F913F912F910F900FBEB9
S11307600F901F9018951F920F920FB60F9211249D
S11307702F933F934F935F936F937F938F939F93A5
S1130780AF93BF93EF93FF93E091C100F091C20048
S1130790309709F00995FF91EF91BF91AF919F9127
S11307A08F917F916F915F914F913F912F910F9016
S11307B00FBE0F901F9018951F920F920FB60F92B5
S11307C011242F933F934F935F936F937F938F9352
S11307D09F93AF93BF93EF93FF93E091C300F09186
S11307E0C400309709F00995FF91EF91BF91AF9143
S11307F09F918F917F916F915F914F913F912F9135
S11308000F900FBE0F901F9018951F920F920FB666
S11308100F9211242F933F934F935F936F937F9382
S11308208F939F93AF93BF93EF93FF93E091CA008D
S1130830F091CB00309709F0099588B7816088BFA3
S11308408091CE0082BFFF91EF91BF91AF919F91B4
S11308508F917F916F915F914F913F912F910F9065
S11308600FBE0F901F9018951F920F920FB60F9204
S113087011242F933F934F935F936F937F938F93A1
S11308809F93AF93BF93EF93FF938091C900882305
S1130890F1F08091C6008F5F8093C6009091C500EF
S11308A0891738F040E06091C8008091C7000E9429
S11308B004038091C600843688F041E06091C8004A
S11308C08091C7000E9404031092C60007C0E09103
S11308D0CC00F091CD00309709F0099588B782607B
S11308E088BFFF91EF91BF91AF919F918F917F91BD
S11308F06F915F914F913F912F910F900FBE0F9089
S11309001F9018951F920F920FB60F9211242F93D8
S11309103F934F935F936F937F938F939F93AF9383
S1130920BF93EF93FF93E091D600F091D7003097F7
S113093009F00995FF91EF91BF91AF919F918F912C
S11309407F916F915F914F913F912F910F900FBEC7
S11309500F901F9018951F920F920FB60F921124AB
S11309602F933F934F935F936F937F938F939F93B3
S1130970AF93BF93EF93FF93E091D400F091D50030
S1130980309709F00995FF91EF91BF91AF919F9135
S11309908F917F916F915F914F913F912F910F9024
S11309A00FBE0F901F9018951F920F920FB60F92C3
S11309B011242F933F934F935F936F937F938F9360
S11309C09F93AF93BF93EF93FF938091D1008F5F79
S11309D08093D100E091D200F091D300309709F0D8
S11309E009958091CF009091D0009DBD8CBDFF9161
S11309F0EF91BF91AF919F918F917F916F915F9193
S1130A004F913F912F910F900FBE0F901F9018950B
S1130A10DF92EF92FF920F931F93CF93DF93D82E21
S1130A20162FC42FD22F611110C00E9426029701E5
S1130A3022953295307F3227207F322740E050E0E4
S1130A400E94F305215031090BC00E942602970130
S1130A50220F331F40E050E00E94F305215031097A
S1130A6080B58F7780BD30BD29B9DD0CDD0CDD0C80
S1130A70DAB880B5806880BD80E4189FB001112485
S1130A8080E1D89F9001112410E0000F111F000F86
S1130A90111F000F111F4C2F50E0440F551F6068A9
S1130AA0622B062B402B40BDDF91CF911F910F91FC
S1130AB0FF90EF90DF9008955F9BFECF8CB1089577
S1130AC05D9BFECF8CB908950F931F93CF938C0138
S1130AD0C0E003C00E946005CF5FF801EC0FF11D78
S1130AE080818111F7CFCF911F910F9108951F92AB
S1130AF00F920FB60F9211242F933F934F935F934E
S1130B006F937F938F939F93AF93BF93EF93FF93D1
S1130B10E091D800F091D900309711F08CB109958B
S1130B20FF91EF91BF91AF919F918F917F916F91C1
S1130B305F914F913F912F910F900FBE0F901F9097
S1130B4018951F920F920FB60F9211242F933F9373
S1130B504F935F936F937F938F939F93AF93BF93C1
S1130B60EF93FF93E091DC00F091DD00309709F002
S1130B700995FF91EF91BF91AF919F918F917F91D3
S1130B806F915F914F913F912F910F900FBE0F90F6
S1130B901F9018951F920F920FB60F9211242F9346
S1130BA03F934F935F936F937F938F939F93AF93F1
S1130BB0BF93EF93FF93E091DA00F091DB0030975D
S1130BC009F00995FF91EF91BF91AF919F918F919A
S1130BD07F916F915F914F913F912F910F900FBE35
S1130BE00F901F901895A1E21A2EAA1BBB1BFD01A2
S1130BF00DC0AA1FBB1FEE1FFF1FA217B307E407F8
S1130C00F50720F0A21BB30BE40BF50B661F771F4F
S1130C10881F991F1A9469F760957095809590952F
S1130C209B01AC01BD01CF010895FB01DC018D9155
S1130C30019080190110D9F3990B0895F894FFCF0E
S1130C40535441525400477265656E204C656420CC
S1130C506973207475726E6564206F6E0053544F0F
S1130C605000526564204C65642069732074757269
S1130C706E6564206F6E00574149540059656C6C71
S1130C806F77204C6564206973207475726E656497
S10D0C90206F6E004154004F4B002A
S9030000FC
